{
  "_format": "hh-sol-artifact-1",
  "contractName": "FarmChain",
  "sourceName": "contracts/FarmChain.sol",
  "abi": [
    {
      "inputs": [],
      "stateMutability": "nonpayable",
      "type": "constructor"
    },
    {
      "anonymous": false,
      "inputs": [
        {
          "indexed": true,
          "internalType": "address",
          "name": "consumerAddress",
          "type": "address"
        },
        {
          "indexed": false,
          "internalType": "string",
          "name": "name",
          "type": "string"
        }
      ],
      "name": "ConsumerRegistered",
      "type": "event"
    },
    {
      "anonymous": false,
      "inputs": [
        {
          "indexed": false,
          "internalType": "uint256",
          "name": "newFee",
          "type": "uint256"
        }
      ],
      "name": "DeliveryFeeUpdated",
      "type": "event"
    },
    {
      "anonymous": false,
      "inputs": [
        {
          "indexed": true,
          "internalType": "address",
          "name": "farmerAddress",
          "type": "address"
        },
        {
          "indexed": false,
          "internalType": "string",
          "name": "name",
          "type": "string"
        }
      ],
      "name": "FarmerRegistered",
      "type": "event"
    },
    {
      "anonymous": false,
      "inputs": [
        {
          "indexed": true,
          "internalType": "uint256",
          "name": "productId",
          "type": "uint256"
        },
        {
          "indexed": true,
          "internalType": "address",
          "name": "buyer",
          "type": "address"
        },
        {
          "indexed": false,
          "internalType": "uint256",
          "name": "finalPrice",
          "type": "uint256"
        }
      ],
      "name": "ProductPurchased",
      "type": "event"
    },
    {
      "anonymous": false,
      "inputs": [
        {
          "indexed": true,
          "internalType": "uint256",
          "name": "productId",
          "type": "uint256"
        },
        {
          "indexed": false,
          "internalType": "string",
          "name": "name",
          "type": "string"
        },
        {
          "indexed": false,
          "internalType": "uint256",
          "name": "basePrice",
          "type": "uint256"
        }
      ],
      "name": "ProductRegistered",
      "type": "event"
    },
    {
      "inputs": [
        {
          "internalType": "uint256",
          "name": "_id",
          "type": "uint256"
        }
      ],
      "name": "buyProduct",
      "outputs": [],
      "stateMutability": "payable",
      "type": "function"
    },
    {
      "inputs": [
        {
          "internalType": "address",
          "name": "",
          "type": "address"
        }
      ],
      "name": "consumers",
      "outputs": [
        {
          "internalType": "address",
          "name": "consumerAddress",
          "type": "address"
        },
        {
          "internalType": "string",
          "name": "name",
          "type": "string"
        },
        {
          "internalType": "string",
          "name": "location",
          "type": "string"
        },
        {
          "internalType": "int256",
          "name": "latitude",
          "type": "int256"
        },
        {
          "internalType": "int256",
          "name": "longitude",
          "type": "int256"
        },
        {
          "internalType": "bool",
          "name": "isRegistered",
          "type": "bool"
        }
      ],
      "stateMutability": "view",
      "type": "function"
    },
    {
      "inputs": [],
      "name": "deliveryFeePerKm",
      "outputs": [
        {
          "internalType": "uint256",
          "name": "",
          "type": "uint256"
        }
      ],
      "stateMutability": "view",
      "type": "function"
    },
    {
      "inputs": [
        {
          "internalType": "address",
          "name": "",
          "type": "address"
        }
      ],
      "name": "farmers",
      "outputs": [
        {
          "internalType": "address",
          "name": "farmerAddress",
          "type": "address"
        },
        {
          "internalType": "string",
          "name": "name",
          "type": "string"
        },
        {
          "internalType": "string",
          "name": "location",
          "type": "string"
        },
        {
          "internalType": "int256",
          "name": "latitude",
          "type": "int256"
        },
        {
          "internalType": "int256",
          "name": "longitude",
          "type": "int256"
        },
        {
          "internalType": "bool",
          "name": "isRegistered",
          "type": "bool"
        }
      ],
      "stateMutability": "view",
      "type": "function"
    },
    {
      "inputs": [],
      "name": "owner",
      "outputs": [
        {
          "internalType": "address",
          "name": "",
          "type": "address"
        }
      ],
      "stateMutability": "view",
      "type": "function"
    },
    {
      "inputs": [],
      "name": "productCount",
      "outputs": [
        {
          "internalType": "uint256",
          "name": "",
          "type": "uint256"
        }
      ],
      "stateMutability": "view",
      "type": "function"
    },
    {
      "inputs": [
        {
          "internalType": "uint256",
          "name": "",
          "type": "uint256"
        }
      ],
      "name": "products",
      "outputs": [
        {
          "internalType": "uint256",
          "name": "id",
          "type": "uint256"
        },
        {
          "internalType": "string",
          "name": "name",
          "type": "string"
        },
        {
          "internalType": "uint256",
          "name": "basePrice",
          "type": "uint256"
        },
        {
          "internalType": "string",
          "name": "description",
          "type": "string"
        },
        {
          "internalType": "string",
          "name": "location",
          "type": "string"
        },
        {
          "internalType": "address payable",
          "name": "farmer",
          "type": "address"
        },
        {
          "internalType": "bool",
          "name": "sold",
          "type": "bool"
        },
        {
          "internalType": "uint256",
          "name": "deliveryRange",
          "type": "uint256"
        }
      ],
      "stateMutability": "view",
      "type": "function"
    },
    {
      "inputs": [
        {
          "internalType": "string",
          "name": "_name",
          "type": "string"
        },
        {
          "internalType": "string",
          "name": "_location",
          "type": "string"
        },
        {
          "internalType": "int256",
          "name": "_latitude",
          "type": "int256"
        },
        {
          "internalType": "int256",
          "name": "_longitude",
          "type": "int256"
        }
      ],
      "name": "registerConsumer",
      "outputs": [],
      "stateMutability": "nonpayable",
      "type": "function"
    },
    {
      "inputs": [
        {
          "internalType": "string",
          "name": "_name",
          "type": "string"
        },
        {
          "internalType": "string",
          "name": "_location",
          "type": "string"
        },
        {
          "internalType": "int256",
          "name": "_latitude",
          "type": "int256"
        },
        {
          "internalType": "int256",
          "name": "_longitude",
          "type": "int256"
        }
      ],
      "name": "registerFarmer",
      "outputs": [],
      "stateMutability": "nonpayable",
      "type": "function"
    },
    {
      "inputs": [
        {
          "internalType": "string",
          "name": "_name",
          "type": "string"
        },
        {
          "internalType": "uint256",
          "name": "_basePrice",
          "type": "uint256"
        },
        {
          "internalType": "string",
          "name": "_description",
          "type": "string"
        },
        {
          "internalType": "string",
          "name": "_location",
          "type": "string"
        },
        {
          "internalType": "uint256",
          "name": "_deliveryRange",
          "type": "uint256"
        }
      ],
      "name": "registerProduct",
      "outputs": [],
      "stateMutability": "nonpayable",
      "type": "function"
    },
    {
      "inputs": [
        {
          "internalType": "uint256",
          "name": "_fee",
          "type": "uint256"
        }
      ],
      "name": "setDeliveryFeePerKm",
      "outputs": [],
      "stateMutability": "nonpayable",
      "type": "function"
    }
  ],
  "bytecode": "0x6080604052600060015566038d7ea4c68000600255348015601f57600080fd5b50336000806101000a81548173ffffffffffffffffffffffffffffffffffffffff021916908373ffffffffffffffffffffffffffffffffffffffff160217905550612c778061006f6000396000f3fe60806040526004361061009c5760003560e01c80638642269e116100645780638642269e146101bb5780638da5cb5b146101d7578063993b27a3146102025780639b46c3e01461022d578063c9dcd33d14610256578063e0f6ef871461027f5761009c565b80630bf53668146100a157806311a25151146100e3578063401b21681461010c5780634906192b1461014e5780637acc0b2014610177575b600080fd5b3480156100ad57600080fd5b506100c860048036038101906100c391906119a9565b6102aa565b6040516100da96959493929190611aa9565b60405180910390f35b3480156100ef57600080fd5b5061010a60048036038101906101059190611c79565b610423565b005b34801561011857600080fd5b50610133600480360381019061012e91906119a9565b610636565b60405161014596959493929190611aa9565b60405180910390f35b34801561015a57600080fd5b5061017560048036038101906101709190611c79565b6107af565b005b34801561018357600080fd5b5061019e60048036038101906101999190611d4e565b6109c2565b6040516101b2989796959493929190611dab565b60405180910390f35b6101d560048036038101906101d09190611d4e565b610bcf565b005b3480156101e357600080fd5b506101ec611283565b6040516101f99190611e3e565b60405180910390f35b34801561020e57600080fd5b506102176112a7565b6040516102249190611e59565b60405180910390f35b34801561023957600080fd5b50610254600480360381019061024f9190611d4e565b6112ad565b005b34801561026257600080fd5b5061027d60048036038101906102789190611e74565b6113bf565b005b34801561028b57600080fd5b50610294611620565b6040516102a19190611e59565b60405180910390f35b60046020528060005260406000206000915090508060000160009054906101000a900473ffffffffffffffffffffffffffffffffffffffff16908060010180546102f390611f72565b80601f016020809104026020016040519081016040528092919081815260200182805461031f90611f72565b801561036c5780601f106103415761010080835404028352916020019161036c565b820191906000526020600020905b81548152906001019060200180831161034f57829003601f168201915b50505050509080600201805461038190611f72565b80601f01602080910402602001604051908101604052809291908181526020018280546103ad90611f72565b80156103fa5780601f106103cf576101008083540402835291602001916103fa565b820191906000526020600020905b8154815290600101906020018083116103dd57829003601f168201915b5050505050908060030154908060040154908060050160009054906101000a900460ff16905086565b600360003373ffffffffffffffffffffffffffffffffffffffff1673ffffffffffffffffffffffffffffffffffffffff16815260200190815260200160002060050160009054906101000a900460ff16156104b3576040517f08c379a00000000000000000000000000000000000000000000000000000000081526004016104aa90611fef565b60405180910390fd5b6040518060c001604052803373ffffffffffffffffffffffffffffffffffffffff16815260200185815260200184815260200183815260200182815260200160011515815250600360003373ffffffffffffffffffffffffffffffffffffffff1673ffffffffffffffffffffffffffffffffffffffff16815260200190815260200160002060008201518160000160006101000a81548173ffffffffffffffffffffffffffffffffffffffff021916908373ffffffffffffffffffffffffffffffffffffffff160217905550602082015181600101908161059491906121bb565b5060408201518160020190816105aa91906121bb565b50606082015181600301556080820151816004015560a08201518160050160006101000a81548160ff0219169083151502179055509050503373ffffffffffffffffffffffffffffffffffffffff167f42558426a946ab6e527d7f548e7bd3e34c2a7ddde555007464cdfbb5f58665f885604051610628919061228d565b60405180910390a250505050565b60036020528060005260406000206000915090508060000160009054906101000a900473ffffffffffffffffffffffffffffffffffffffff169080600101805461067f90611f72565b80601f01602080910402602001604051908101604052809291908181526020018280546106ab90611f72565b80156106f85780601f106106cd576101008083540402835291602001916106f8565b820191906000526020600020905b8154815290600101906020018083116106db57829003601f168201915b50505050509080600201805461070d90611f72565b80601f016020809104026020016040519081016040528092919081815260200182805461073990611f72565b80156107865780601f1061075b57610100808354040283529160200191610786565b820191906000526020600020905b81548152906001019060200180831161076957829003601f168201915b5050505050908060030154908060040154908060050160009054906101000a900460ff16905086565b600460003373ffffffffffffffffffffffffffffffffffffffff1673ffffffffffffffffffffffffffffffffffffffff16815260200190815260200160002060050160009054906101000a900460ff161561083f576040517f08c379a0000000000000000000000000000000000000000000000000000000008152600401610836906122fb565b60405180910390fd5b6040518060c001604052803373ffffffffffffffffffffffffffffffffffffffff16815260200185815260200184815260200183815260200182815260200160011515815250600460003373ffffffffffffffffffffffffffffffffffffffff1673ffffffffffffffffffffffffffffffffffffffff16815260200190815260200160002060008201518160000160006101000a81548173ffffffffffffffffffffffffffffffffffffffff021916908373ffffffffffffffffffffffffffffffffffffffff160217905550602082015181600101908161092091906121bb565b50604082015181600201908161093691906121bb565b50606082015181600301556080820151816004015560a08201518160050160006101000a81548160ff0219169083151502179055509050503373ffffffffffffffffffffffffffffffffffffffff167f397fc7b52fe34f12198884b039c9d92048fb1761bceb5879742a789ab7389edd856040516109b4919061228d565b60405180910390a250505050565b60056020528060005260406000206000915090508060000154908060010180546109eb90611f72565b80601f0160208091040260200160405190810160405280929190818152602001828054610a1790611f72565b8015610a645780601f10610a3957610100808354040283529160200191610a64565b820191906000526020600020905b815481529060010190602001808311610a4757829003601f168201915b505050505090806002015490806003018054610a7f90611f72565b80601f0160208091040260200160405190810160405280929190818152602001828054610aab90611f72565b8015610af85780601f10610acd57610100808354040283529160200191610af8565b820191906000526020600020905b815481529060010190602001808311610adb57829003601f168201915b505050505090806004018054610b0d90611f72565b80601f0160208091040260200160405190810160405280929190818152602001828054610b3990611f72565b8015610b865780601f10610b5b57610100808354040283529160200191610b86565b820191906000526020600020905b815481529060010190602001808311610b6957829003601f168201915b5050505050908060050160009054906101000a900473ffffffffffffffffffffffffffffffffffffffff16908060050160149054906101000a900460ff16908060060154905088565b600460003373ffffffffffffffffffffffffffffffffffffffff1673ffffffffffffffffffffffffffffffffffffffff16815260200190815260200160002060050160009054906101000a900460ff16610c5e576040517f08c379a0000000000000000000000000000000000000000000000000000000008152600401610c559061238d565b60405180910390fd5b60006005600083815260200190815260200160002090508060050160149054906101000a900460ff1615610cc7576040517f08c379a0000000000000000000000000000000000000000000000000000000008152600401610cbe906123f9565b60405180910390fd5b6000600360008360050160009054906101000a900473ffffffffffffffffffffffffffffffffffffffff1673ffffffffffffffffffffffffffffffffffffffff1673ffffffffffffffffffffffffffffffffffffffff1681526020019081526020016000206040518060c00160405290816000820160009054906101000a900473ffffffffffffffffffffffffffffffffffffffff1673ffffffffffffffffffffffffffffffffffffffff1673ffffffffffffffffffffffffffffffffffffffff168152602001600182018054610d9d90611f72565b80601f0160208091040260200160405190810160405280929190818152602001828054610dc990611f72565b8015610e165780601f10610deb57610100808354040283529160200191610e16565b820191906000526020600020905b815481529060010190602001808311610df957829003601f168201915b50505050508152602001600282018054610e2f90611f72565b80601f0160208091040260200160405190810160405280929190818152602001828054610e5b90611f72565b8015610ea85780601f10610e7d57610100808354040283529160200191610ea8565b820191906000526020600020905b815481529060010190602001808311610e8b57829003601f168201915b5050505050815260200160038201548152602001600482015481526020016005820160009054906101000a900460ff16151515158152505090506000600460003373ffffffffffffffffffffffffffffffffffffffff1673ffffffffffffffffffffffffffffffffffffffff1681526020019081526020016000206040518060c00160405290816000820160009054906101000a900473ffffffffffffffffffffffffffffffffffffffff1673ffffffffffffffffffffffffffffffffffffffff1673ffffffffffffffffffffffffffffffffffffffff168152602001600182018054610f9490611f72565b80601f0160208091040260200160405190810160405280929190818152602001828054610fc090611f72565b801561100d5780601f10610fe25761010080835404028352916020019161100d565b820191906000526020600020905b815481529060010190602001808311610ff057829003601f168201915b5050505050815260200160028201805461102690611f72565b80601f016020809104026020016040519081016040528092919081815260200182805461105290611f72565b801561109f5780601f106110745761010080835404028352916020019161109f565b820191906000526020600020905b81548152906001019060200180831161108257829003601f168201915b5050505050815260200160038201548152602001600482015481526020016005820160009054906101000a900460ff161515151581525050905060006110f78360600151846080015184606001518560800151611626565b90508360060154811115611140576040517f08c379a00000000000000000000000000000000000000000000000000000000081526004016111379061248b565b60405180910390fd5b60006002548261115091906124da565b856002015461115f919061251c565b9050803410156111a4576040517f08c379a000000000000000000000000000000000000000000000000000000000815260040161119b9061259c565b60405180910390fd5b8460050160009054906101000a900473ffffffffffffffffffffffffffffffffffffffff1673ffffffffffffffffffffffffffffffffffffffff166108fc349081150290604051600060405180830381858888f1935050505015801561120e573d6000803e3d6000fd5b5060018560050160146101000a81548160ff0219169083151502179055503373ffffffffffffffffffffffffffffffffffffffff16867fa530f889d7f1bd9a73028e48944ca013ab2c6624a31e3fa26f923f4bb719abd5836040516112739190611e59565b60405180910390a3505050505050565b60008054906101000a900473ffffffffffffffffffffffffffffffffffffffff1681565b60025481565b60008054906101000a900473ffffffffffffffffffffffffffffffffffffffff1673ffffffffffffffffffffffffffffffffffffffff163373ffffffffffffffffffffffffffffffffffffffff161461133b576040517f08c379a00000000000000000000000000000000000000000000000000000000081526004016113329061262e565b60405180910390fd5b6000811161137e576040517f08c379a0000000000000000000000000000000000000000000000000000000008152600401611375906126c0565b60405180910390fd5b806002819055507f0a2d24eb3c93d9749c27112249a5af878a0035e50a2dfd2f19706f5e5dc79fa7816040516113b49190611e59565b60405180910390a150565b600360003373ffffffffffffffffffffffffffffffffffffffff1673ffffffffffffffffffffffffffffffffffffffff16815260200190815260200160002060050160009054906101000a900460ff1661144e576040517f08c379a000000000000000000000000000000000000000000000000000000000815260040161144590612752565b60405180910390fd5b60008411611491576040517f08c379a0000000000000000000000000000000000000000000000000000000008152600401611488906127e4565b60405180910390fd5b600160008154809291906114a490612804565b919050555060405180610100016040528060015481526020018681526020018581526020018481526020018381526020013373ffffffffffffffffffffffffffffffffffffffff1681526020016000151581526020018281525060056000600154815260200190815260200160002060008201518160000155602082015181600101908161153291906121bb565b5060408201518160020155606082015181600301908161155291906121bb565b50608082015181600401908161156891906121bb565b5060a08201518160050160006101000a81548173ffffffffffffffffffffffffffffffffffffffff021916908373ffffffffffffffffffffffffffffffffffffffff16021790555060c08201518160050160146101000a81548160ff02191690831515021790555060e082015181600601559050506001547f57030c25126c4f4705ce7d82daf497a7005ee8015063d65c5c89481076f13864868660405161161192919061284c565b60405180910390a25050505050565b60015481565b6000806118e390506000630aba95006312b9b0a18887611646919061287c565b61165091906128bf565b61165a9190612966565b90506000630aba95006312b9b0a18887611674919061287c565b61167e91906128bf565b6116889190612966565b905060006116a160028361169c9190612966565b6117b3565b6116b66002846116b19190612966565b6117b3565b6116dd630aba95006312b9b0a18b6116ce91906128bf565b6116d89190612966565b611816565b611704630aba95006312b9b0a18e6116f591906128bf565b6116ff9190612966565b611816565b61170e91906128bf565b61171891906128bf565b61172291906128bf565b6117376002856117329190612966565b6117b3565b61174c6002866117479190612966565b6117b3565b61175691906128bf565b61176091906129d0565b9050600061178a61177083611879565b6117858460016117809190612a14565b611879565b6118e8565b600261179691906124da565b905080856117a491906124da565b95505050505050949350505050565b600060786005836117c49190612ba4565b6117ce9190612966565b60066003846117dd9190612ba4565b6117e79190612966565b836117f2919061287c565b6117fc91906129d0565b670de0b6b3a764000061180f91906128bf565b9050919050565b600060186004836118279190612ba4565b6118319190612966565b6002808461183f9190612ba4565b6118499190612966565b6001611855919061287c565b61185f91906129d0565b670de0b6b3a764000061187291906128bf565b9050919050565b600080820361188b57600090506118e3565b6000600260018461189c919061251c565b6118a69190612c10565b90508291505b818110156118e15780915060028182856118c69190612c10565b6118d0919061251c565b6118da9190612c10565b90506118ac565b505b919050565b60008082036119135760008311611900576000611906565b635da073275b63ffffffff169050611931565b81633b9aca008461192491906124da565b61192e9190612c10565b90505b92915050565b6000604051905090565b600080fd5b600080fd5b600073ffffffffffffffffffffffffffffffffffffffff82169050919050565b60006119768261194b565b9050919050565b6119868161196b565b811461199157600080fd5b50565b6000813590506119a38161197d565b92915050565b6000602082840312156119bf576119be611941565b5b60006119cd84828501611994565b91505092915050565b6119df8161196b565b82525050565b600081519050919050565b600082825260208201905092915050565b60005b83811015611a1f578082015181840152602081019050611a04565b60008484015250505050565b6000601f19601f8301169050919050565b6000611a47826119e5565b611a5181856119f0565b9350611a61818560208601611a01565b611a6a81611a2b565b840191505092915050565b6000819050919050565b611a8881611a75565b82525050565b60008115159050919050565b611aa381611a8e565b82525050565b600060c082019050611abe60008301896119d6565b8181036020830152611ad08188611a3c565b90508181036040830152611ae48187611a3c565b9050611af36060830186611a7f565b611b006080830185611a7f565b611b0d60a0830184611a9a565b979650505050505050565b600080fd5b600080fd5b7f4e487b7100000000000000000000000000000000000000000000000000000000600052604160045260246000fd5b611b5a82611a2b565b810181811067ffffffffffffffff82111715611b7957611b78611b22565b5b80604052505050565b6000611b8c611937565b9050611b988282611b51565b919050565b600067ffffffffffffffff821115611bb857611bb7611b22565b5b611bc182611a2b565b9050602081019050919050565b82818337600083830152505050565b6000611bf0611beb84611b9d565b611b82565b905082815260208101848484011115611c0c57611c0b611b1d565b5b611c17848285611bce565b509392505050565b600082601f830112611c3457611c33611b18565b5b8135611c44848260208601611bdd565b91505092915050565b611c5681611a75565b8114611c6157600080fd5b50565b600081359050611c7381611c4d565b92915050565b60008060008060808587031215611c9357611c92611941565b5b600085013567ffffffffffffffff811115611cb157611cb0611946565b5b611cbd87828801611c1f565b945050602085013567ffffffffffffffff811115611cde57611cdd611946565b5b611cea87828801611c1f565b9350506040611cfb87828801611c64565b9250506060611d0c87828801611c64565b91505092959194509250565b6000819050919050565b611d2b81611d18565b8114611d3657600080fd5b50565b600081359050611d4881611d22565b92915050565b600060208284031215611d6457611d63611941565b5b6000611d7284828501611d39565b91505092915050565b611d8481611d18565b82525050565b6000611d958261194b565b9050919050565b611da581611d8a565b82525050565b600061010082019050611dc1600083018b611d7b565b8181036020830152611dd3818a611a3c565b9050611de26040830189611d7b565b8181036060830152611df48188611a3c565b90508181036080830152611e088187611a3c565b9050611e1760a0830186611d9c565b611e2460c0830185611a9a565b611e3160e0830184611d7b565b9998505050505050505050565b6000602082019050611e5360008301846119d6565b92915050565b6000602082019050611e6e6000830184611d7b565b92915050565b600080600080600060a08688031215611e9057611e8f611941565b5b600086013567ffffffffffffffff811115611eae57611ead611946565b5b611eba88828901611c1f565b9550506020611ecb88828901611d39565b945050604086013567ffffffffffffffff811115611eec57611eeb611946565b5b611ef888828901611c1f565b935050606086013567ffffffffffffffff811115611f1957611f18611946565b5b611f2588828901611c1f565b9250506080611f3688828901611d39565b9150509295509295909350565b7f4e487b7100000000000000000000000000000000000000000000000000000000600052602260045260246000fd5b60006002820490506001821680611f8a57607f821691505b602082108103611f9d57611f9c611f43565b5b50919050565b7f4661726d657220616c7265616479207265676973746572656400000000000000600082015250565b6000611fd96019836119f0565b9150611fe482611fa3565b602082019050919050565b6000602082019050818103600083015261200881611fcc565b9050919050565b60008190508160005260206000209050919050565b60006020601f8301049050919050565b600082821b905092915050565b6000600883026120717fffffffffffffffffffffffffffffffffffffffffffffffffffffffffffffffff82612034565b61207b8683612034565b95508019841693508086168417925050509392505050565b6000819050919050565b60006120b86120b36120ae84611d18565b612093565b611d18565b9050919050565b6000819050919050565b6120d28361209d565b6120e66120de826120bf565b848454612041565b825550505050565b600090565b6120fb6120ee565b6121068184846120c9565b505050565b5b8181101561212a5761211f6000826120f3565b60018101905061210c565b5050565b601f82111561216f576121408161200f565b61214984612024565b81016020851015612158578190505b61216c61216485612024565b83018261210b565b50505b505050565b600082821c905092915050565b600061219260001984600802612174565b1980831691505092915050565b60006121ab8383612181565b9150826002028217905092915050565b6121c4826119e5565b67ffffffffffffffff8111156121dd576121dc611b22565b5b6121e78254611f72565b6121f282828561212e565b600060209050601f8311600181146122255760008415612213578287015190505b61221d858261219f565b865550612285565b601f1984166122338661200f565b60005b8281101561225b57848901518255600182019150602085019450602081019050612236565b868310156122785784890151612274601f891682612181565b8355505b6001600288020188555050505b505050505050565b600060208201905081810360008301526122a78184611a3c565b905092915050565b7f436f6e73756d657220616c726561647920726567697374657265640000000000600082015250565b60006122e5601b836119f0565b91506122f0826122af565b602082019050919050565b60006020820190508181036000830152612314816122d8565b9050919050565b7f4f6e6c79207265676973746572656420636f6e73756d6572732063616e20706560008201527f72666f726d207468697320616374696f6e000000000000000000000000000000602082015250565b60006123776031836119f0565b91506123828261231b565b604082019050919050565b600060208201905081810360008301526123a68161236a565b9050919050565b7f50726f6475637420616c726561647920736f6c64000000000000000000000000600082015250565b60006123e36014836119f0565b91506123ee826123ad565b602082019050919050565b60006020820190508181036000830152612412816123d6565b9050919050565b7f50726f647563742063616e6e6f742062652064656c69766572656420746f207960008201527f6f7572206c6f636174696f6e0000000000000000000000000000000000000000602082015250565b6000612475602c836119f0565b915061248082612419565b604082019050919050565b600060208201905081810360008301526124a481612468565b9050919050565b7f4e487b7100000000000000000000000000000000000000000000000000000000600052601160045260246000fd5b60006124e582611d18565b91506124f083611d18565b92508282026124fe81611d18565b91508282048414831517612515576125146124ab565b5b5092915050565b600061252782611d18565b915061253283611d18565b925082820190508082111561254a576125496124ab565b5b92915050565b7f496e73756666696369656e742066756e64730000000000000000000000000000600082015250565b60006125866012836119f0565b915061259182612550565b602082019050919050565b600060208201905081810360008301526125b581612579565b9050919050565b7f4f6e6c7920636f6e7472616374206f776e65722063616e20706572666f726d2060008201527f7468697320616374696f6e000000000000000000000000000000000000000000602082015250565b6000612618602b836119f0565b9150612623826125bc565b604082019050919050565b600060208201905081810360008301526126478161260b565b9050919050565b7f44656c697665727920666565206d75737420626520677265617465722074686160008201527f6e207a65726f0000000000000000000000000000000000000000000000000000602082015250565b60006126aa6026836119f0565b91506126b58261264e565b604082019050919050565b600060208201905081810360008301526126d98161269d565b9050919050565b7f4f6e6c792072656769737465726564206661726d6572732063616e207065726660008201527f6f726d207468697320616374696f6e0000000000000000000000000000000000602082015250565b600061273c602f836119f0565b9150612747826126e0565b604082019050919050565b6000602082019050818103600083015261276b8161272f565b9050919050565b7f42617365207072696365206d7573742062652067726561746572207468616e2060008201527f7a65726f00000000000000000000000000000000000000000000000000000000602082015250565b60006127ce6024836119f0565b91506127d982612772565b604082019050919050565b600060208201905081810360008301526127fd816127c1565b9050919050565b600061280f82611d18565b91507fffffffffffffffffffffffffffffffffffffffffffffffffffffffffffffffff8203612841576128406124ab565b5b600182019050919050565b600060408201905081810360008301526128668185611a3c565b90506128756020830184611d7b565b9392505050565b600061288782611a75565b915061289283611a75565b92508282039050818112600084121682821360008512151617156128b9576128b86124ab565b5b92915050565b60006128ca82611a75565b91506128d583611a75565b92508282026128e381611a75565b91507f8000000000000000000000000000000000000000000000000000000000000000841460008412161561291b5761291a6124ab565b5b82820584148315176129305761292f6124ab565b5b5092915050565b7f4e487b7100000000000000000000000000000000000000000000000000000000600052601260045260246000fd5b600061297182611a75565b915061297c83611a75565b92508261298c5761298b612937565b5b600160000383147f8000000000000000000000000000000000000000000000000000000000000000831416156129c5576129c46124ab565b5b828205905092915050565b60006129db82611a75565b91506129e683611a75565b925082820190508281121560008312168382126000841215161715612a0e57612a0d6124ab565b5b92915050565b6000612a1f82611d18565b9150612a2a83611d18565b9250828203905081811115612a4257612a416124ab565b5b92915050565b60008160011c9050919050565b6000808291508390505b6001851115612a9f57808604811115612a7b57612a7a6124ab565b5b6001851615612a8a5780820291505b8081029050612a9885612a48565b9450612a5f565b94509492505050565b60008260008114612ac05760018114612aca57612ad3565b6001915050612b8f565b82915050612b8f565b5081612ae25760009050612b8f565b600190506000821360018114612aff5760008114612b1757612b2b565b828604831115612b1257612b116124ab565b5b612b2b565b828605831215612b2a57612b296124ab565b5b5b506001831615612b39578190505b8182029150612b4783612a48565b9250612b5585848484612a55565b925090508185048111600082131615612b7157612b706124ab565b5b8184058112600082121615612b8957612b886124ab565b5b81810290505b949350505050565b600060ff82169050919050565b6000612baf82611a75565b9150612bba83612b97565b9250612c087f7fffffffffffffffffffffffffffffffffffffffffffffffffffffffffffffff7f80000000000000000000000000000000000000000000000000000000000000008585612aa8565b905092915050565b6000612c1b82611d18565b9150612c2683611d18565b925082612c3657612c35612937565b5b82820490509291505056fea264697066735822122048a4eaaecb7851b7ae8dd81a632bf365260438e998855a9480d1b096ffc8190964736f6c634300081c0033",
  "linkReferences": {},
  "deployedLinkReferences": {}
}